{
  "contractName": "SwapPetOracle",
  "abi": [
    {
      "inputs": [
        {
          "internalType": "address",
          "name": "oracle_",
          "type": "address"
        },
        {
          "internalType": "address",
          "name": "swapper_",
          "type": "address"
        }
      ],
      "stateMutability": "nonpayable",
      "type": "constructor"
    },
    {
      "inputs": [],
      "name": "oracle",
      "outputs": [
        {
          "internalType": "address",
          "name": "",
          "type": "address"
        }
      ],
      "stateMutability": "view",
      "type": "function"
    },
    {
      "inputs": [],
      "name": "swapper",
      "outputs": [
        {
          "internalType": "address",
          "name": "",
          "type": "address"
        }
      ],
      "stateMutability": "view",
      "type": "function"
    },
    {
      "inputs": [
        {
          "internalType": "address",
          "name": "swapper_",
          "type": "address"
        }
      ],
      "name": "setSwapper",
      "outputs": [],
      "stateMutability": "nonpayable",
      "type": "function"
    },
    {
      "inputs": [
        {
          "internalType": "address",
          "name": "base_",
          "type": "address"
        },
        {
          "internalType": "address",
          "name": "quote_",
          "type": "address"
        }
      ],
      "name": "price",
      "outputs": [
        {
          "internalType": "uint256",
          "name": "",
          "type": "uint256"
        }
      ],
      "stateMutability": "view",
      "type": "function"
    },
    {
      "inputs": [
        {
          "internalType": "address",
          "name": "tokenIn_",
          "type": "address"
        },
        {
          "internalType": "address",
          "name": "tokenOut_",
          "type": "address"
        },
        {
          "internalType": "uint256",
          "name": "amountIn_",
          "type": "uint256"
        }
      ],
      "name": "swap",
      "outputs": [
        {
          "internalType": "uint256",
          "name": "amountOut_",
          "type": "uint256"
        }
      ],
      "stateMutability": "nonpayable",
      "type": "function"
    }
  ],
  "bytecode": "0x608060405234801561001057600080fd5b506040516109803803806109808339818101604052604081101561003357600080fd5b508051602091820151604080518082019091528381527f4465706c6f79696e672061204f7261636c65207769746820737761707065723a81850152919290916100859183906102be6100b6821b17901c565b600080546001600160a01b039384166001600160a01b03199182161790915560018054929093169116179055610197565b61017282826040516024018080602001836001600160a01b03168152602001828103825284818151815260200191508051906020019080838360005b8381101561010a5781810151838201526020016100f2565b50505050905090810190601f1680156101375780820380516001836020036101000a031916815260200191505b5060408051601f198184030181529190526020810180516001600160e01b0390811663319af33360e01b179091529094506101761692505050565b5050565b80516a636f6e736f6c652e6c6f67602083016000808483855afa5050505050565b6107da806101a66000396000f3fe608060405234801561001057600080fd5b50600436106100675760003560e01c80637dc0d1d0116100505780637dc0d1d0146100ea5780639c82f2a4146100f2578063df791e501461012757610067565b80632b00490d1461006c5780632b3297f9146100b9575b600080fd5b6100a76004803603604081101561008257600080fd5b5073ffffffffffffffffffffffffffffffffffffffff8135811691602001351661016a565b60408051918252519081900360200190f35b6100c16101b7565b6040805173ffffffffffffffffffffffffffffffffffffffff9092168252519081900360200190f35b6100c16101d3565b6101256004803603602081101561010857600080fd5b503573ffffffffffffffffffffffffffffffffffffffff166101ef565b005b6100a76004803603606081101561013d57600080fd5b5073ffffffffffffffffffffffffffffffffffffffff813581169160208101359091169060400135610271565b60006101ae6040518060400160405280601981526020017f7072696365206f662027257327202f20272573273a27256927000000000000008152508484600a6103d2565b50600a92915050565b60015473ffffffffffffffffffffffffffffffffffffffff1681565b60005473ffffffffffffffffffffffffffffffffffffffff1681565b61022a6040518060600160405280602281526020016107836022913960015473ffffffffffffffffffffffffffffffffffffffff168361050e565b600180547fffffffffffffffffffffffff00000000000000000000000000000000000000001673ffffffffffffffffffffffffffffffffffffffff92909216919091179055565b60408051808201909152601b81527f7377617020272573272066726f6d202725692720746f202725692700000000006020820152607b906102b490858484610641565b50607b9392505050565b6103ce828260405160240180806020018373ffffffffffffffffffffffffffffffffffffffff168152602001828103825284818151815260200191508051906020019080838360005b8381101561031f578181015183820152602001610307565b50505050905090810190601f16801561034c5780820380516001836020036101000a031916815260200191505b50604080517fffffffffffffffffffffffffffffffffffffffffffffffffffffffffffffffe08184030181529190526020810180517bffffffffffffffffffffffffffffffffffffffffffffffffffffffff167f319af33300000000000000000000000000000000000000000000000000000000179052935061076192505050565b5050565b6105088484848460405160240180806020018573ffffffffffffffffffffffffffffffffffffffff1681526020018473ffffffffffffffffffffffffffffffffffffffff168152602001838152602001828103825286818151815260200191508051906020019080838360005b8381101561045757818101518382015260200161043f565b50505050905090810190601f1680156104845780820380516001836020036101000a031916815260200191505b50604080517fffffffffffffffffffffffffffffffffffffffffffffffffffffffffffffffe08184030181529190526020810180517bffffffffffffffffffffffffffffffffffffffffffffffffffffffff167f6eb7943d000000000000000000000000000000000000000000000000000000001790529550610761945050505050565b50505050565b61063c83838360405160240180806020018473ffffffffffffffffffffffffffffffffffffffff1681526020018373ffffffffffffffffffffffffffffffffffffffff168152602001828103825285818151815260200191508051906020019080838360005b8381101561058c578181015183820152602001610574565b50505050905090810190601f1680156105b95780820380516001836020036101000a031916815260200191505b50604080517fffffffffffffffffffffffffffffffffffffffffffffffffffffffffffffffe08184030181529190526020810180517bffffffffffffffffffffffffffffffffffffffffffffffffffffffff167ffcec75e00000000000000000000000000000000000000000000000000000000017905294506107619350505050565b505050565b6105088484848460405160240180806020018573ffffffffffffffffffffffffffffffffffffffff168152602001848152602001838152602001828103825286818151815260200191508051906020019080838360005b838110156106b0578181015183820152602001610698565b50505050905090810190601f1680156106dd5780820380516001836020036101000a031916815260200191505b50604080517fffffffffffffffffffffffffffffffffffffffffffffffffffffffffffffffe08184030181529190526020810180517bffffffffffffffffffffffffffffffffffffffffffffffffffffffff167fdaa394bd000000000000000000000000000000000000000000000000000000001790529550610761945050505050565b80516a636f6e736f6c652e6c6f67602083016000808483855afa505050505056fe4368616e67696e6720737761707065722066726f6d202725732720746f2027257327a264697066735822122093605c9a6b965b58a89175f6b6f681c81c5ac2b8b7ecb561326ebe8bd95087c764736f6c63430007000033",
  "immutableReferences": {},
  "source": "// SPDX-License-Identifier: Apache-2.0\n// Copyright 2020 Swap.Pet@pm.me\n// contracts/interfaces/SwapPetOracle.sol\npragma solidity ^0.7.0; \n\n// import \"@nomiclabs/buidler/console.sol\";\nimport \"hardhat/console.sol\";\n\n/// @title   basic price Oracle of Swap.Pet.\n/// @author  Swap.Pet@pm.me \n/// @dev     price on base/quote, swapper for exchange between base and quote. \ncontract SwapPetOracle { \n    address public oracle;\n    address public swapper;\n\n    constructor(address oracle_,address swapper_) public {\n        console.log(\"Deploying a Oracle with swapper:\", swapper_);\n        oracle = oracle_;\n        swapper = swapper_;\n    } \n\n    function setSwapper(address swapper_) public {\n        console.log(\"Changing swapper from '%s' to '%s'\", swapper, swapper_);\n        swapper = swapper_;\n    }\n    /// @notice the price(scaled by 1e18) of base_/quote_.\n    // / @returns return 0 if false or not support the base_/quote_. \n    function price(address base_,address quote_) external view returns (uint256){\n        console.log(\"price of '%s' / '%s':'%i'\", base_, quote_,10);\n        return 10;\n    }\n\n    /// @notice swap Check amountIn_ tokenIn_ to amountOut_ tokenOut_.\n    // / @returns 0 with do nothing or do not support base_/quote_ swap.\n    function swap(address tokenIn_,address tokenOut_,uint256 amountIn_) external returns (uint256 amountOut_){\n        amountOut_ = 123;\n        console.log(\"swap '%s' from '%i' to '%i'\", tokenIn_, amountIn_, amountOut_); \n        return 123;\n    }\n}\n",
  "sourcePath": "/media/sdc1/GitClient/swappet/oracle/contracts/SwapPetOracle.sol",
  "compiler": {
    "name": "solc",
    "version": "0.7.0+commit.9e61f92b.Emscripten.clang"
  },
  "schemaVersion": "3.3.1",
  "updatedAt": "2020-10-30T05:38:32.413Z",
  "devdoc": {
    "author": "Swap.Pet@pm.me ",
    "details": "price on base/quote, swapper for exchange between base and quote. ",
    "kind": "dev",
    "methods": {},
    "title": "basic price Oracle of Swap.Pet.",
    "version": 1
  },
  "userdoc": {
    "kind": "user",
    "methods": {
      "price(address,address)": {
        "notice": "the price(scaled by 1e18) of base_/quote_."
      },
      "swap(address,address,uint256)": {
        "notice": "swap Check amountIn_ tokenIn_ to amountOut_ tokenOut_."
      }
    },
    "version": 1
  }
}